:100000006F00101A6F00C008000000000000000020
:100010006F00001100000000000000000000000060
:100020006F008018000000000000000000000000C9
:100030006F00002000000000000000000000000031
:10004000000000006F0040276F00802F00000000BC
:100050000000000000000000000000006F005003DE
:100060006F0080696F0040366F00803E6F00C046B1
:100070006F00004F6F0040576F00805F6F0040704F
:100080006F008078130000001300000013000000D0
:10009000130101F823201100232221002324310021
:1000A0002326410023285100232A6100232C7100BC
:1000B000232E8100232091022322A1022324B102B6
:1000C0002326C1022328D102232AE102232CF10294
:1000D000232E01032320110523222105232431058A
:1000E0002326410523285105232A6105232C710568
:1000F000232E8105232091072322A1072324B10762
:100100002326C1072328D107232AE107232CF1073F
:1001100073252034F3251034EF00903F6F00C07F2B
:10012000130101F823201100232221002324310090
:100130002326410023285100232A6100232C71002B
:10014000232E8100232091022322A1022324B10225
:100150002326C1022328D102232AE102232CF10203
:10016000232E0103232011052322210523243105F9
:100170002326410523285105232A6105232C7105D7
:10018000232E8105232091072322A1072324B107D1
:100190002326C1072328D107232AE107232CF107AF
:1001A000EF00D02B6F004077130101F823201100DE
:1001B000232221002324310023264100232851003B
:1001C000232A6100232C7100232E81002320910219
:1001D0002322A1022324B1022326C1022328D10213
:1001E000232AE102232CF102232E010323201105EF
:1001F00023222105232431052326410523285105E7
:10020000232A6105232C7105232E810523209107C4
:100210002322A1072324B1072326C1072328D107BE
:10022000232AE107232CF107EF00900E6F00C06E28
:10023000130101F82320110023222100232431007F
:100240002326410023285100232A6100232C71001A
:10025000232E8100232091022322A1022324B10214
:100260002326C1022328D102232AE102232CF102F2
:10027000232E0103232011052322210523243105E8
:100280002326410523285105232A6105232C7105C6
:10029000232E8105232091072322A1072324B107C0
:1002A0002326C1072328D107232AE107232CF1079E
:1002B000EF00D0416F004066130101F823201100C8
:1002C000232221002324310023264100232851002A
:1002D000232A6100232C7100232E81002320910208
:1002E0002322A1022324B1022326C1022328D10202
:1002F000232AE102232CF102232E010323201105DE
:1003000023222105232431052326410523285105D5
:10031000232A6105232C7105232E810523209107B3
:100320002322A1072324B1072326C1072328D107AD
:10033000232AE107232CF107EF00D03C6F00C05DBA
:10034000130101F82320110023222100232431006E
:100350002326410023285100232A6100232C710009
:10036000232E8100232091022322A1022324B10203
:100370002326C1022328D102232AE102232CF102E1
:10038000232E0103232011052322210523243105D7
:100390002326410523285105232A6105232C7105B5
:1003A000232E8105232091072322A1072324B107AF
:1003B0002326C1072328D107232AE107232CF1078D
:1003C000EF0090326F004055130101F82320110017
:1003D0002322210023243100232641002328510019
:1003E000232A6100232C7100232E810023209102F7
:1003F0002322A1022324B1022326C1022328D102F1
:10040000232AE102232CF102232E010323201105CC
:1004100023222105232431052326410523285105C4
:10042000232A6105232C7105232E810523209107A2
:100430002322A1072324B1072326C1072328D1079C
:10044000232AE107232CF107EF70C05A6F00C04C3C
:10045000130101F82320110023222100232431005D
:100460002326410023285100232A6100232C7100F8
:10047000232E8100232091022322A1022324B102F2
:100480002326C1022328D102232AE102232CF102D0
:10049000232E0103232011052322210523243105C6
:1004A0002326410523285105232A6105232C7105A4
:1004B000232E8105232091072322A1072324B1079E
:1004C0002326C1072328D107232AE107232CF1077C
:1004D000EF70C0546F004044130101F82320110055
:1004E0002322210023243100232641002328510008
:1004F000232A6100232C7100232E810023209102E6
:100500002322A1022324B1022326C1022328D102DF
:10051000232AE102232CF102232E010323201105BB
:1005200023222105232431052326410523285105B3
:10053000232A6105232C7105232E81052320910791
:100540002322A1072324B1072326C1072328D1078B
:10055000232AE107232CF107EF70404F6F00C03BC7
:10056000130101F82320110023222100232431004C
:100570002326410023285100232A6100232C7100E7
:10058000232E8100232091022322A1022324B102E1
:100590002326C1022328D102232AE102232CF102BF
:1005A000232E0103232011052322210523243105B5
:1005B0002326410523285105232A6105232C710593
:1005C000232E8105232091072322A1072324B1078D
:1005D0002326C1072328D107232AE107232CF1076B
:1005E000EF7040496F004033130101F823201100E0
:1005F00023222100232431002326410023285100F7
:10060000232A6100232C7100232E810023209102D4
:100610002322A1022324B1022326C1022328D102CE
:10062000232AE102232CF102232E010323201105AA
:1006300023222105232431052326410523285105A2
:10064000232A6105232C7105232E81052320910780
:100650002322A1072324B1072326C1072328D1077A
:10066000232AE107232CF107EF7040436F00C02AD3
:10067000130101F82320110023222100232431003B
:100680002326410023285100232A6100232C7100D6
:10069000232E8100232091022322A1022324B102D0
:1006A0002326C1022328D102232AE102232CF102AE
:1006B000232E0103232011052322210523243105A4
:1006C0002326410523285105232A6105232C710582
:1006D000232E8105232091072322A1072324B1077C
:1006E0002326C1072328D107232AE107232CF1075A
:1006F000EF00D0046F004022130101F82320110005
:1007000023222100232431002326410023285100E5
:10071000232A6100232C7100232E810023209102C3
:100720002322A1022324B1022326C1022328D102BD
:10073000232AE102232CF102232E01032320110599
:100740002322210523243105232641052328510591
:10075000232A6105232C7105232E8105232091076F
:100760002322A1072324B1072326C1072328D10769
:10077000232AE107232CF107EF00807A6F00C019CC
:10078000130101F82320110023222100232431002A
:100790002326410023285100232A6100232C7100C5
:1007A000232E8100232091022322A1022324B102BF
:1007B0002326C1022328D102232AE102232CF1029D
:1007C000232E010323201105232221052324310593
:1007D0002326410523285105232A6105232C710571
:1007E000232E8105232091072322A1072324B1076B
:1007F0002326C1072328D107232AE107232CF10749
:10080000EF0000776F004011130101F82320110061
:1008100023222100232431002326410023285100D4
:10082000232A6100232C7100232E810023209102B2
:100830002322A1022324B1022326C1022328D102AC
:10084000232AE102232CF102232E01032320110588
:100850002322210523243105232641052328510580
:10086000232A6105232C7105232E8105232091075E
:100870002322A1072324B1072326C1072328D10758
:10088000232AE107232CF107EF0040706F00C00816
:10089000130101F823201100232221002324310019
:1008A0002326410023285100232A6100232C7100B4
:1008B000232E8100232091022322A1022324B102AE
:1008C0002326C1022328D102232AE102232CF1028C
:1008D000232E010323201105232221052324310582
:1008E0002326410523285105232A6105232C710560
:1008F000232E8105232091072322A1072324B1075A
:100900002326C1072328D107232AE107232CF10737
:10091000EF0080696F004000832001000321410047
:10092000832181000322C1008322010103234101AD
:10093000832381010324C101832401020325410291
:10094000832581020326C102832601030327410375
:10095000832781030328C103832801040329410459
:1009600083298104032AC104832A0105032B41053D
:10097000832B8105032CC105832C0106032D410621
:10098000832D8106032EC106832E0107032F410705
:10099000832F81071301010873002030000000003D
:1009A000735000307350403097F0FFFF93808065A4
:1009B000B7C200029382C2FF23A00200F3221030CC
:1009C00093F2120063960202F322503093F2320047
:1009D00013031000639E6200F322503093F2C2FFB3
:1009E00017F3FFFF13034362639862046F00000173
:1009F00097F2FFFF938242617390523017B7000065
:100A00001307476697B700009387C76517B80000BC
:100A1000130848676308F700638607019700000022
:100A2000E780400997C100009381C1E3EF00000116
:100A30001381015D6F0080437300100093820000FA
:100A40009387018D1388019D63840701EF004004A3
:100A5000938701881388018D638C0701EF004003A1
:100A60009387019D138801DD63840701EF00400235
:100A70001387018293870182138801886306F70038
:100A800063840701EF00C0029380020067800000CA
:100A90006364F804B368F80093F83800634E1003F9
:100AA00023A0070093874700E3CC07FF678000007F
:100AB0006364F802B368F80093F83800634E1001DD
:100AC0008328070023A017019387470013074700D7
:100AD000E3C807FF6F0080006F0000006780000020
:100AE000130101FF2326810013040101B7670000F1
:100AF00003A70702B76700001377D7FF23A0E70219
:100B0000130000000324C1001301010167800000ED
:100B1000130101FD23261102232481021304010382
:100B200093070008F3B747302326F4FEB7C7000247
:100B3000938787FF83A707002320F4FE232204FE68
:100B40006F00C0059387818803A8470083A707002B
:100B5000138701888325070003264700B386B70063
:100B6000138506003335F5003307C800B307E500E9
:100B700013870700938706001308070013878188EF
:100B80002320F700232207019387018983A7070009
:100B9000138717009387018923A0E700832704FEAA
:100BA000032844FE9305500013060000B386B700E7
:100BB000138506003335F5003307C800B307E50099
:100BC000138707009387818803A8470083A707003E
:100BD0009305070013060800E366B6F693050700C1
:100BE000130608006396C50013870600E3ECE7F4DC
:100BF000B7470002938747001307F0FF23A0E700E1
:100C00009387818803A8470083A70700374700021E
:100C10002320F7009387818803A8470083A7070054
:100C20001353080093030000B7470002938747005F
:100C30001307030023A0E700EF00802793070008B5
:100C4000F3A74730232EF4FC130000008320C102D9
:100C5000032481021301010367800000130101FFD7
:100C6000232611002324810013040101EF60105694
:100C7000EFF01FE7130000008320C1000324810070
:100C80001301010167800000130101FC232E1102F2
:100C9000232C81021304010493070500A307F4FC2D
:100CA000F32740F12326F4FE8327C4FE2320F4FE1D
:100CB000232204FE0347F4FC9307F00163F4E700EA
:100CC000730010000347F4FC9307F00063E4E700AF
:100CD000730010008347F4FC938707FFA30FF4FC15
:100CE0008347F4FD17A700001307C78B93972700CE
:100CF000B307F70083A70700E78007001300000091
:100D00008320C103032481031301010467800000D1
:100D1000130101FA232E1104232C8104130401066C
:100D20002326A4FA2324B4FA0327C4FA930707005E
:100D3000130800003707008033F7E7002324E4FEA0
:100D4000937708002326F4FE832784FE0327C4FE3E
:100D5000B3E7E7006380070A0327C4FAB7070080F8
:100D600093C707FFB377F700638607020327C4FA28
:100D7000B707008093C707FEB377F700639C0700AF
:100D80008327C4FA93F7F70F13850700EFF0DFEF1F
:100D90006F00800C0327C4FAB707008093C7F7FFE2
:100DA0003377F7009307B0006316F700EF000012E7
:100DB0006F00800A0327C4FAB707008093C7F7FFC4
:100DC0003377F700930730006316F700EFF01FE961
:100DD0006F0080080327C4FAB707008093C7F7FFA6
:100DE0003377F700930770006318F706EFF05FD2D0
:100DF0006F008006F32740342322F4FE832744FE4D
:100E00002320F4FEF3273034232EF4FC8327C4FD83
:100E1000232CF4FCF3275030232AF4FC832744FDD1
:100E20002328F4FCF32700342326F4FC8327C4FC96
:100E30002324F4FCF32700302322F4FC832744FC12
:100E40002320F4FCF3271034232EF4FA8327C4FB69
:100E5000232CF4FA73001000130000008320C10556
:100E6000032481051301010667800000130101FFBF
:100E7000232611002324810013040101EF60904414
:100E8000130000008320C10003248100130101012D
:100E900067800000130101FF232681001304010174
:100EA000130000000324C10013010101678000004A
:100EB000130101FF23268100130401011300000028
:100EC0000324C1001301010167800000130101FF29
:100ED0002326810013040101130000000324C10034
:100EE0001301010167800000130101FF2326810027
:100EF00013040101130000000324C10013010101C8
:100F000067800000130101FF232681001304010103
:100F1000130000000324C1001301010167800000D9
:100F2000130101FF232681001304010113000000B7
:100F30000324C1001301010167800000130101FFB8
:100F40002326810013040101130000000324C100C3
:100F50001301010167800000130101FF2326110026
:100F600023248100130401011305A000EF00800574
:100F7000130101FF23268100130401011300000067
:100F80000324C1001301010167800000130101FF68
:100F90002326810013040101130000000324C10073
:100FA0001301010167800000130101FF2326810066
:100FB00013040101130000000324C1001301010107
:100FC00067800000130101FE232E8100130401023B
:100FD0002326A4FE6F000000130101FD23268102D9
:100FE00013040103232EA4FC232604FE138701DD32
:100FF0009387019D63E4E7007300100097B700003A
:101000009387470603A707008327C4FD3307F7002C
:101010009387019D6360F70297B700009387870469
:1010200003A707008327C4FD3307F700938701DD7B
:1010300063FEE700938741891307C00023A0E70000
:101040009307F0FF2326F4FE6F00000497B700001B
:101050009387470103A707008327C4FD3307F700E1
:1010600097B700009387070023A0E70097B7000019
:10107000938747FF03A707008327C4FDB307F0400A
:10108000B307F7002326F4FE97B70000938787FD88
:1010900003A70700938701DD63F4E70073001000E6
:1010A0008327C4FE138507000324C1021301010333
:1010B00067800000130101FE232E8100130401024A
:1010C000F36704302326F4FE130000000324C1015B
:1010D0001301010267800000130101FE232E81002D
:1010E0001304010293070008F3B707302326F4FE28
:1010F000F37704302324F4FE130000000324C1011D
:101100001301010267800000130101FF2326110073
:101110002324810013040101EFF0DFF91300000024
:101120008320C100032481001301010167800000B6
:10113000130101FE232E1100232C81001304010250
:10114000F32700302326F4FE8327C4FE2324F4FE75
:10115000EFF09FF8832784FE138507008320C101E9
:10116000032481011301010267800000130101FEC5
:10117000232E8100130401022326A4FE8327C4FE2C
:1011800073900730130000000324C1011301010212
:10119000678000002320B50067800000032505005C
:1011A00067800000138E0600331EBE00337ECE0023
:1011B000032305009303060093C3F3FF3373730007
:1011C0003363C30123206500678000000325050009
:1011D0003375C5003355B500678000002310B50096
:1011E000678000000315050067800000138E06006D
:1011F000331EBE00337ECE000313050093030600AA
:1012000093C3F3FF337373003363C301231065008B
:1012100067800000031505003375C5003355B50020
:10122000678000002300B50067800000030505000B
:1012300067800000138E0600331EBE00337ECE0092
:10124000030305009303060093C3F3FF3373730096
:101250003363C301230065006780000003050500B8
:101260003375C5003355B50067800000130101FFD9
:101270002326810013040101B71708619387C7046F
:101280001307F00223A0E700B70709629387071945
:1012900023A00700B717086093878706130740400D
:1012A00023A0E700B7170860938787083707130361
:1012B0001307773423A0E700B71708619387470027
:1012C000371715011307273223A0E700B717086166
:1012D00093878700371700001307A7F223A0E700C2
:1012E000B71708619387C70037070C001307F72467
:1012F00023A0E700B7170861938707011307A0022F
:1013000023A0E700B71708619387470123A00700D0
:10131000B71708619387870137570000130707F055
:1013200023A0E700B71708619387070223A00700EF
:10133000B7170861938747023707000C1307670048
:1013400023A0E700B71708619387870223A007004F
:10135000B71708619387C7021307600023A0E7004F
:10136000B7170861938707031307700B23A0E700E3
:10137000B71708619387470337870000130717F4EF
:1013800023A0E700B717086193878703372700007A
:101390001307873E23A0E700B71708619387C703A9
:1013A0003707E1001307C70023A0E700B71708615C
:1013B0009387070437C700001307874223A0E7007D
:1013C000B7170861938787041307C00323A0E700BA
:1013D000B7170861938707051307200123A0E700CB
:1013E000B71708619387070D37073FFF130757713A
:1013F00023A0E700B71708619387470D375701010E
:101400001307D79123A0E700B71708619387870DCB
:10141000370740001307070123A0E700B71708614B
:101420009387C70D23A00700B71708619387070CA0
:1014300023A00700B71708619387070E23A00700B2
:10144000B71708619387C7041307C00323A0E700F9
:10145000130000000324C100130101016780000094
:10146000130101FD23261102232481021304010329
:1014700093070500A30FF4FCA30704FEB717086148
:101480009387C7041307F00223A0E700B71708618A
:101490009387070E23A007000347F4FD930720005E
:1014A000631EF704B70702689387C70023A00700ED
:1014B000B7070268938707013717000113070780F2
:1014C00023A0E700B70702689387470213071000BD
:1014D00023A0E700B70702689387C702130700023B
:1014E00023A0E700B7170861938707043787000038
:1014F0001307072523A0E7006F00001A0347F4FD38
:1015000093073000631AF704B70702689387C70090
:1015100023A00700B7070268938707013717000168
:1015200023A0E700B707026893874702130710005C
:1015300023A0E700B70702689387C70213070002DA
:1015400023A0E700B71708619387070413078022D9
:1015500023A0E7006F0040140347F4FD9307400009
:10156000631EF704B70702689387C70023A007002C
:10157000B707026893870701372700011307071091
:1015800023A0E700B70702689387470213071000FC
:1015900023A0E700B70702689387C702130710026A
:1015A00023A0E700B71708619387070437C7000037
:1015B0001307472123A0E7006F00000E0347F4FD47
:1015C000930750006312F706B70702689387C700B6
:1015D0001307300023A0E700B707026893870701CD
:1015E000374700011307073023A0E700B707026859
:1015F000938747023777F11F130717B023A0E7003F
:10160000B70702689387C7021307100223A0E700F9
:10161000B71708619387070437E7000013074741AE
:1016200023A0E7006F0040070347F4FD9307600025
:101630006314F706B71708619387070E3707200072
:1016400023A0E700B70702689387C70023A007001D
:10165000B707026893870701372700011307075070
:1016600023A0E700B707026893874702130710001B
:1016700023A0E700B70702689387C7021307500249
:1016800023A0E700B71708619387070437270000F6
:101690001307472123A0E700B71708619387C70402
:1016A0001307C00323A0E7000347F4FD93072000BE
:1016B0006310F70213052000EF0040168347F4FD86
:1016C00013850700EF00400293070500A307F4FE0F
:1016D0008347F4FE138507008320C102032481029F
:1016E0001301010367800000130101FD232611028D
:1016F000232481021304010393070500A30FF4FCC4
:10170000A30704FE0347F4FD930720006316F700C8
:10171000B70704006F008000B70710002324F4FE11
:10172000130610009305500013854196EF50901654
:1017300013051000EF00800E130600009305500003
:1017400013854196EF50101513052000EF00000D92
:10175000B71708619387071083A707002322F4FEB9
:10176000032744FE832784FEB377F70063860700D0
:10177000930710006F0000028347F4FE9387170061
:10178000A307F4FE0347F4FE93073001E3FEE7FAF4
:1017900093070000138507008320C1020324810200
:1017A0001301010367800000130101FE232E810055
:1017B0001304010293070500A307F4FE8347F4FE18
:1017C00093F7F70013F7F70F938781892380E700DA
:1017D000130000000324C10113010102678000000F
:1017E000130101FE232E810013040102930705005B
:1017F000A307F4FE8347F4FE93F7370013F7F70FC0
:1018000097B70000938747862380E7001300000006
:101810000324C1011301010267800000130101FDCF
:101820002326810213040103232EA4FC232604FE95
:101830006F004003232404FE6F000001832784FE11
:10184000938717002324F4FE032784FEB7C7000004
:101850009387F734E3F4E7FE8327C4FE93871700EA
:101860002326F4FE0327C4FE8327C4FDE364F7FCAC
:10187000130000000324C10213010103678000006C
:10188000130101FD23261102232481021304010305
:10189000232EA4FC93050000B707007313854700AF
:1018A000EF50902D8327C4FD13F7F70F938781899D
:1018B00083C7070093969700B7270000938707E038
:1018C000B3F7F6003367F70097A700009387C7794F
:1018D00083C707009396D700B7670000B3F7F600F9
:1018E0003367F7009387918983C707009396F700C2
:1018F000B70701009387F7FFB3F7F600B367F70068
:101900002326F4FE8325C4FEB707007313858700E2
:10191000EF5090260325C4FDEF00404A93053000A8
:10192000B707007313854700EF5010251300000020
:101930008320C10203248102130101036780000098
:10194000130101FE232E8100130401022326A4FEAD
:101950008327C4FE9387C7FF130700086368F70453
:1019600013972700979700009387C7C7B307F7001F
:1019700003A70700979700009387C7C6B307F70030
:1019800067800700930700006F0080029307100034
:101990006F000002930720006F0080019307300062
:1019A0006F000001930740006F0080009307300034
:1019B000138507000324C1011301010267800000A1
:1019C000130101FB2326810413040105930705007D
:1019D000A30FF4FAB7070961938707012326F4FEE2
:1019E000B7070961938747012324F4FEB70709610C
:1019F000938787012322F4FEB70709619387C70104
:101A00002320F4FEB707096193870702232EF4FC15
:101A1000B707096193874702232CF4FCB7070961D4
:101A200093878702232AF4FCB70709619387C702CB
:101A30002328F4FCB7070961938707032326F4FCE6
:101A4000B7070961938787032324F4FC8347F4FBDA
:101A500013074000636CF734139727009797000033
:101A6000938787D8B307F70003A70700979700006D
:101A7000938787D7B307F700678007008327C4FEE3
:101A8000370728001307F70023A0E700832784FE09
:101A900037175D021307677423A0E700832744FE0E
:101AA0003707F8001307D70523A0E700832704FEB4
:101AB0001307007D23A0E7008327C4FD3707040038
:101AC0001307E72E23A0E700832784FD3707B40917
:101AD0001307970123A0E700832744FD37E7A707F3
:101AE0001307076923A0E700832704FD37070101D7
:101AF0001307974023A0E7008327C4FC376712072A
:101B00001307776923A0E700832784FC37071800B1
:101B10001307870223A0E7006F0040298327C4FE34
:101B2000370728001307F70023A0E700832784FE68
:101B300037175D021307677423A0E700832744FE6D
:101B4000370700011307070323A0E700832704FEDC
:101B5000371700001307578523A0E7008327C4FD2C
:101B6000370702001307071923A0E700832784FD26
:101B70003707AD091307970123A0E700832744FD2A
:101B800037E7AB071307076923A0E700832704FDA6
:101B9000370701011307974023A0E7008327C4FC00
:101BA000379712071307376723A0E700832784FCC2
:101BB000370718001307870223A0E7006F00001FF4
:101BC0008327C4FE370728001307F70023A0E70088
:101BD000832784FE37175D021307677423A0E7008D
:101BE000832744FE370700011307870123A0E7007E
:101BF000832704FE371700001307B70A23A0E70066
:101C00008327C4FD370702001307071923A0E70045
:101C1000832784FD3707AD091307970123A0E70049
:101C2000832744FD37E7AB071307076923A0E700C5
:101C3000832704FD370701011307974023A0E7001E
:101C40008327C4FC379712071307376723A0E700E1
:101C5000832784FC370718001307870223A0E700B7
:101C60006F00C0148327C4FE370728001307F7004E
:101C700023A0E700832784FE37175D0213076774EC
:101C800023A0E700832744FE370700011307C7009E
:101C900023A0E700832704FE37270000130757150A
:101CA00023A0E7008327C4FD3707020013070719A5
:101CB00023A0E700832784FD3707AD0913079701A9
:101CC00023A0E700832744FD37E7AB071307076925
:101CD00023A0E700832704FD37070101130797407E
:101CE00023A0E7008327C4FC379712071307376741
:101CF00023A0E700832784FC370718001307870217
:101D000023A0E7006F00800A8327C4FE3707240062
:101D10001307F70023A0E700832784FE37175D0130
:101D20001307677423A0E700832744FE37074001A9
:101D30001307C70023A0E700832704FE37370000FE
:101D40001307B79A23A0E7008327C4FD37070200D3
:101D50001307071923A0E700832784FD3707AD0980
:101D60001307970123A0E700832744FD37E7B10756
:101D70001307C76823A0E700832704FD3707010185
:101D80001307974023A0E7008327C4FC37071607F3
:101D90001307175323A0E700832784FC3707180095
:101DA0001307470223A0E700130000001300000000
:101DB0000324C1041301010567800000130101FD24
:101DC000232611022324810213040103232EA4FCE1
:101DD0000325C4FDEFF0DFB6930705002307F4FEEB
:101DE000B7170861938787071307300023A0E70020
:101DF0009387818903C7070093072000630AF700D0
:101E00009387818903C70700930710006316F700C3
:101E1000930710006F00800093070000A306F4FEF4
:101E20008347D4FE638A07048347E4FE1307200038
:101E30006380E702130730006382E7021307100094
:101E40006394E70293070007A307F4FE6F00400ABC
:101E500093071007A307F4FE6F008009930730076C
:101E6000A307F4FE6F00C00893075007A307F4FE12
:101E7000130000006F00C0078347E4FE1307400013
:101E80006362F706139727009797000093870797D9
:101E9000B307F70003A707009797000093870796FB
:101EA000B307F7006780070093070007A307F4FE56
:101EB0006F00000493071007A307F4FE6F004003B0
:101EC00093073007A307F4FE6F00800293075007C3
:101ED000A307F4FE6F00C00193073007A307F4FEC9
:101EE0006F00000193075007A307F4FE13000000E2
:101EF000B7170861938747070347F4FE23A0E7005D
:101F00008347E4FE13850700EFF09FABB717086126
:101F1000938787071307100023A0E7001300000032
:101F20008320C102032481021301010367800000A2
:101F3000130101FD2326110223248102130401034E
:101F4000232804FC232A04FC232C04FC232E04FC59
:101F5000232004FE232204FE232404FE930704FD11
:101F600013850700EF10001B832704FD2307F4FEF1
:101F70000347E4FE930710006318F700930730004F
:101F8000A307F4FE6F0040020347E4FE930730000E
:101F90006318F70093071000A307F4FE6F00C0005A
:101FA0008347E4FEA307F4FE8347F4FE938507000E
:101FB000B707007313850701EF50003C832744FDEA
:101FC00093850700B707007313854701EF50C03AA8
:101FD000832784FD93850700B70700731385870166
:101FE000EF5080398327C4FD93850700B70700733E
:101FF0001385C701EF504038832704FE93850700FF
:10200000B707007313850702EF500037832744FE9C
:1020100093850700B707007313854702EF50C0355B
:10202000832784FE93850700B70700731385870213
:10203000EF508034130000008320C102032481028A
:102040001301010367800000130101FE232E11001C
:10205000232C810013040102232404FE232204FE06
:10206000232004FEB707007213850701EF50402EAE
:102070002324A4FE832784FE2322F4FE032744FEA8
:10208000B72700009387077163E6E7009307000016
:102090006F008005B707007213850702EF50402BD1
:1020A0002320A4FE032704FE930710006310F70209
:1020B000832744FE9305A00F13850700EF70404E61
:1020C000930705002326F4FE6F00C001832744FE1A
:1020D0009305803E13850700EF70804C9307050041
:1020E0002326F4FE8327C4FE138507008320C10145
:1020F000032481011301010267800000130101FE26
:10210000232E1100232C8100130401022326A4FE98
:10211000B71710619387C7041307300323A0E700A4
:10212000B72710619387C7041307300323A0E70084
:10213000B74710619387C7041307300323A0E70054
:10214000B78710619387C7041307300323A0E70004
:102150008325C4FE37151001EF0000088325C4FE57
:1021600037251001EF0040078325C4FE37451001D5
:10217000EF008006B71710619387C70413070003A9
:1021800023A0E700B72710619387C7041307000354
:1021900023A0E700B74710619387C7041307000324
:1021A00023A0E700B78710619387C70413070003D4
:1021B00023A0E70093051000B7070072138587017D
:1021C000EF50801B130000008320C1010324810114
:1021D0001301010267800000130101FD2326810223
:1021E00013040103232EA4FC232CB4FC9307400109
:1021F0002326F4FEB7170000138747738327C4FE16
:10220000B307F740032784FD6360F7140327C4FE78
:10221000B717000093874773B307F700032784FDC0
:1022200063E4E712B70780689387870013070010FD
:1022300023A0E700B70780689387C70023A00700A3
:10224000B7078068938707013717000113070780D6
:1022500023A0E700B70780689387470213071000A1
:1022600023A0E700B70780689387C702130700021F
:1022700023A0E7000327C4FDB7070060938787000A
:10228000B307F700138707009307A0022320F70086
:102290000327C4FDB70700609387C700B307F700A3
:1022A00013870700B70704009387F7242320F7005C
:1022B0000327C4FDB707006093870701B307F70042
:1022C000138707009307A0022320F7000327C4FD0C
:1022D000B707006093874702B307F700138707002B
:1022E000B7070004938727002320F7000327C4FDC6
:1022F000B70700609387C702B307F700138707008B
:10230000930720002320F7000327C4FDB7070060D0
:1023100093870704B307F70013870700930780220A
:102320002320F7000327C4FDB70700609387470DFC
:10233000B307F70013870700B75701019387D791B9
:102340002320F7006F001052B7170000138777168D
:102350008327C4FEB307F740032784FD6360F714A7
:102360000327C4FEB717000093877716B307F7005B
:10237000032784FD63E4E712B7078068938787002B
:102380001307001023A0E700B70780689387C700F2
:1023900023A00700B707806893870701371700015C
:1023A0001307078023A0E700B707806893874702D9
:1023B0001307100023A0E700B70780689387C702C0
:1023C0001307000223A0E7000327C4FDB70700603E
:1023D00093878700B307F70013870700930750011F
:1023E0002320F7000327C4FDB70700609387C700C9
:1023F000B307F70013870700B70704009387F714A4
:102400002320F7000327C4FDB70700609387070167
:10241000B307F70013870700930750012320F70045
:102420000327C4FDB707006093874702B307F7008F
:1024300013870700B7070004938717002320F700CE
:102440000327C4FDB70700609387C702B307F700EF
:1024500013870700930710002320F7000327C4FD0C
:10246000B707006093870704B307F70013870700D7
:102470009307E0212320F7000327C4FDB70700607E
:102480009387470DB307F70013870700B75701017C
:102490009387D7912320F7006F00D03CB717000037
:1024A000138707E88327C4FEB307F740032784FD9B
:1024B0006360F7140327C4FEB7170000938707E88B
:1024C000B307F700032784FD63E4E712B7078068CA
:1024D000938787001307001023A0E700B7078068E1
:1024E0009387C70023A00700B70780689387070179
:1024F000371700011307078023A0E700B70780689C
:10250000938747021307100023A0E700B7078068EE
:102510009387C7021307000223A0E7000327C4FD27
:10252000B707006093878700B307F700138707009A
:10253000930750012320F7000327C4FDB70700606D
:102540009387C700B307F70013870700B707040096
:102550009387F7142320F7000327C4FDB707006013
:1025600093870701B307F70013870700930750010C
:102570002320F7000327C4FDB707006093874702B5
:10258000B307F70013870700B70700049387170006
:102590002320F7000327C4FDB70700609387C70215
:1025A000B307F70013870700930710002320F700F5
:1025B0000327C4FDB707006093870704B307F7003C
:1025C00013870700930790212320F7000327C4FDFA
:1025D000B70700609387470DB307F700138707001D
:1025E000B75701019387D7912320F7006F009027F9
:1025F000B71700001387A7B98327C4FEB307F740B6
:10260000032784FD6362F7140327C4FEB717000095
:102610009387A7B9B307F700032784FD63E6E712A2
:10262000B7078068938787001307001023A0E7008F
:10263000B70780689387C70023A00700B7078068A3
:1026400093870701371700011307078023A0E700CE
:10265000B7078068938747021307100023A0E7009D
:10266000B70780689387C7021307000223A0E7001B
:102670000327C4FDB707006093878700B307F700FF
:1026800013870700930750012320F7000327C4FD99
:10269000B70700609387C700B307F70013870700E9
:1026A000B70704009387F7142320F7000327C4FD1E
:1026B000B707006093870701B307F7001387070088
:1026C000930750012320F7000327C4FDB7070060DC
:1026D00093874702B307F70013870700B707000483
:1026E000938717002320F7000327C4FDB707006076
:1026F0009387C702B307F7001387070093071000FB
:102700002320F7000327C4FDB70700609387070461
:10271000B307F70013870700B72700009387472107
:102720002320F7000327C4FDB70700609387470DF8
:10273000B307F70013870700B75701019387D791B5
:102740002320F7006F001012B71700001387378B94
:102750008327C4FEB307F740032784FD6362F714A1
:102760000327C4FEB71700009387378BB307F70022
:10277000032784FD63E6E712B70780689387870025
:102780001307001023A0E700B70780689387C700EE
:1027900023A00700B7078068938707013717000158
:1027A0001307078023A0E700B707806893874702D5
:1027B0001307100023A0E700B70780689387C702BC
:1027C0001307000223A0E7000327C4FDB70700603A
:1027D00093878700B307F70013870700930750011B
:1027E0002320F7000327C4FDB70700609387C700C5
:1027F000B307F70013870700B70704009387F714A0
:102800002320F7000327C4FDB70700609387070163
:10281000B307F70013870700930750012320F70041
:102820000327C4FDB707006093874702B307F7008B
:1028300013870700B7070004938717002320F700CA
:102840000327C4FDB70700609387C702B307F700EB
:1028500013870700930710002320F7000327C4FD08
:10286000B707006093870704B307F70013870700D3
:10287000B72700009387E7412320F7000327C4FD13
:10288000B70700609387470DB307F700138707006A
:10289000B75701019387D7912320F7006F00807C01
:1028A000130700748327C4FEB307F740032784FD92
:1028B000636CF7128327C4FE93870774032784FD94
:1028C00063E4E712B7078068938787001307001057
:1028D00023A0E700B70780689387C70023A00700FD
:1028E000B7078068938707013717000123A0E70027
:1028F000B7078068938747021307100023A0E700FB
:10290000B70780689387C7021307000223A0E70078
:102910000327C4FDB707006093878700B307F7005C
:1029200013870700930750012320F7000327C4FDF6
:10293000B70700609387C700B307F7001387070046
:10294000B70704009387F7142320F7000327C4FD7B
:10295000B707006093870701B307F70013870700E5
:10296000930750012320F7000327C4FDB707006039
:1029700093874702B307F70013870700B7070004E0
:10298000938717002320F7000327C4FDB7070060D3
:102990009387C702B307F700138707009307100058
:1029A0002320F7000327C4FDB707006093870704BF
:1029B000B307F70013870700B72700009387972115
:1029C0002320F7000327C4FDB70700609387470D56
:1029D000B307F70013870700B75701019387D79113
:1029E0002320F7006F0000681307D05C8327C4FE24
:1029F000B307F740032784FD636EF7128327C4FEF5
:102A00009387D75C032784FD63E6E712B7078068E6
:102A1000938787001307001023A0E700B70780689B
:102A20009387C70023A00700B70780689387070133
:102A3000371700011307078023A0E700B707806856
:102A4000938747021307100023A0E700B7078068A9
:102A50009387C7021307000223A0E7000327C4FDE2
:102A6000B707006093878700B307F7001387070055
:102A7000930750012320F7000327C4FDB707006028
:102A80009387C700B307F70013870700B707040051
:102A90009387F7142320F7000327C4FDB7070060CE
:102AA00093870701B307F7001387070093075001C7
:102AB0002320F7000327C4FDB70700609387470270
:102AC000B307F70013870700B707000493871700C1
:102AD0002320F7000327C4FDB70700609387C702D0
:102AE000B307F70013870700930710002320F700B0
:102AF0000327C4FDB707006093870704B307F700F7
:102B000013870700B7470000938747412320F7004A
:102B10000327C4FDB70700609387470DB307F7008D
:102B200013870700B75701019387D7812320F70048
:102B30006F004053130790458327C4FEB307F74047
:102B4000032784FD636CF7128327C4FE93879745A0
:102B5000032784FD63E4E712B70780689387870043
:102B60001307001023A0E700B70780689387C7000A
:102B700023A00700B7078068938707013717000174
:102B800023A0E700B7078068938747021307100068
:102B900023A0E700B70780689387C70213070002E6
:102BA00023A0E7000327C4FDB707006093878700D1
:102BB000B307F70013870700930750012320F7009E
:102BC0000327C4FDB70700609387C700B307F7006A
:102BD00013870700B70704009387F7142320F70033
:102BE0000327C4FDB707006093870701B307F70009
:102BF00013870700930750012320F7000327C4FD24
:102C0000B707006093874702B307F70013870700F1
:102C1000B7070004938717002320F7000327C4FD9C
:102C2000B70700609387C702B307F7001387070051
:102C3000930710002320F7000327C4FDB7070060A7
:102C400093870704B307F70013870700B74700000F
:102C50009387E7412320F7000327C4FDB7070060EF
:102C60009387470DB307F70013870700B757010194
:102C70009387D7812320F7006F00C03E1307003AE7
:102C80008327C4FEB307F740032784FD6360F7146E
:102C90008327C4FE9387073A032784FD63E8E7127E
:102CA000B7078068938787001307001023A0E70009
:102CB000B70780689387C7001307300023A0E70099
:102CC000B7078068938707013717000123A0E70043
:102CD000B7078068938747023757951B130717700C
:102CE00023A0E700B70780689387C7021307000295
:102CF00023A0E7000327C4FDB70700609387870080
:102D0000B307F70013870700930750012320F7004C
:102D10000327C4FDB70700609387C700B307F70018
:102D200013870700B70704009387F7142320F700E1
:102D30000327C4FDB707006093870701B307F700B7
:102D400013870700930750012320F7000327C4FDD2
:102D5000B707006093874702B307F70013870700A0
:102D6000B7070004938717002320F7000327C4FD4B
:102D7000B70700609387C702B307F7001387070000
:102D8000930710002320F7000327C4FDB707006056
:102D900093870704B307F70013870700B7470000BE
:102DA0009387F7512320F7000327C4FDB70700607E
:102DB0009387470DB307F70013870700B757010143
:102DC0009387D7812320F7006F00C0291307602E57
:102DD0008327C4FEB307F740032784FD636EF71211
:102DE0008327C4FE9387672E032784FD63E6E712DB
:102DF000B7078068938787001307001023A0E700B8
:102E0000B70780689387C70023A00700B7078068CB
:102E100093870701371700011307078023A0E700F6
:102E2000B7078068938747021307100023A0E700C5
:102E3000B70780689387C7021307000223A0E70043
:102E40000327C4FDB707006093878700B307F70027
:102E500013870700930750012320F7000327C4FDC1
:102E6000B70700609387C700B307F7001387070011
:102E7000B70704009387F7142320F7000327C4FD46
:102E8000B707006093870701B307F70013870700B0
:102E9000930750012320F7000327C4FDB707006004
:102EA00093874702B307F70013870700B7070004AB
:102EB000938717002320F7000327C4FDB70700609E
:102EC0009387C702B307F700138707009307100023
:102ED0002320F7000327C4FDB7070060938707048A
:102EE000B307F70013870700B77700009387478180
:102EF0002320F7000327C4FDB70700609387470D21
:102F0000B307F70013870700B75701019387D781ED
:102F10002320F7006F0000151307C0218327C4FE8C
:102F2000B307F740032784FD636EF7128327C4FEBF
:102F30009387C721032784FD63E6E712B7078068FC
:102F4000938787001307001023A0E700B707806866
:102F50009387C70023A00700B707806893870701FE
:102F6000371700011307078023A0E700B707806821
:102F7000938747021307100023A0E700B707806874
:102F80009387C7021307000223A0E7000327C4FDAD
:102F9000B707006093878700B307F7001387070020
:102FA000930750012320F7000327C4FDB7070060F3
:102FB0009387C700B307F70013870700B70704001C
:102FC0009387F7142320F7000327C4FDB707006099
:102FD00093870701B307F700138707009307500192
:102FE0002320F7000327C4FDB7070060938747023B
:102FF000B307F70013870700B7070004938717008C
:103000002320F7000327C4FDB70700609387C7029A
:10301000B307F70013870700930710002320F7007A
:103020000327C4FDB707006093870704B307F700C1
:1030300013870700B7F70000938747B12320F700F5
:103040000327C4FDB70700609387470DB307F70058
:1030500013870700B75701019387D7812320F70013
:103060006F004000130000000324C102130101039C
:1030700067800000130101FE232E8100130401026A
:1030800093070500A307F4FE0347F4FE93075000DF
:10309000631EF700B707046893870701371700011D
:1030A000130707A023A0E7006F00C0050347F4FE45
:1030B00093076000631EF700B70704689387070152
:1030C00037170001130707C023A0E7006F00800334
:1030D0000347F4FE93077000631CF700B70704680A
:1030E000938707013717000123A0E7006F008001D5
:1030F000B707046893870701371700011307078094
:1031000023A0E700130000000324C1011301010202
:1031100067800000130101FD232611022324810290
:103120002322910213040103232EA4FCB70700728B
:10313000938787032326F4FE232404FE6F00C00335
:10314000832784FE939727000327C4FDB304F70069
:103150000325C4FEEF40C01F9307050023A0F40021
:103160008327C4FE938747002326F4FE832784FE2B
:10317000938717002324F4FE032784FE930760003F
:10318000E3D0E7FC130000008320C1020324810286
:10319000832441021301010367800000130101FF32
:1031A000232611002324810013040101B7070072B4
:1031B00013854702EF40C0199307050093D75700C6
:1031C00093F7F70F93F7370093F7F70F138507007F
:1031D0008320C100032481001301010167800000E6
:1031E000130101FF23261100232481001304010190
:1031F000B707007213854703EF408015930705005A
:1032000093D7870093F7F70F93F7F70093F7F70F2C
:10321000138507008320C1000324810013010101ED
:1032200067800000130101FF232611002324810081
:1032300013040101B707007213854702EF404011E4
:103240009307050093D7870193F7F70F13850700BE
:103250008320C10003248100130101016780000065
:10326000130101FD232681021304010393070500C6
:10327000A30FF4FC232604FE6F0000041777000060
:10328000130707598327C4FE93972700B307F70056
:1032900003A70700B707006093878707B307F70006
:1032A000138707008347F4FD2320F7008327C4FE1C
:1032B000938717002326F4FE0327C4FE93073000EC
:1032C000E3DEE7FA130000000324C1021301010347
:1032D00067800000130101FD23268102130401030E
:1032E00093070500A30FF4FC232604FE6F000004DF
:1032F000177700001307C7518327C4FE9397270051
:10330000B307F70003A70700B707006093874707D5
:10331000B307F700138707008347F4FD2320F70066
:103320008327C4FE938717002326F4FE0327C4FED9
:1033300093073000E3DEE7FA130000000324C10224
:103340001301010367800000130101FE232E810099
:103350001304010293070500A307F4FE8347F4FE5C
:10336000130720016368F70613972700977700007B
:103370009387074BB307F70003A707009777000071
:103380009387074AB307F700678007009307100782
:103390006F008004930730076F0000049307500705
:1033A0006F008003930750076F00000393077007B7
:1033B0006F008002930710076F0000029307100749
:1033C0006F008001930750076F00000193075007BB
:1033D0006F00800093071007138507000324C101C5
:1033E0001301010267800000130101FE232E8100FA
:1033F000130401029307050013870600A307F4FED8
:10340000938705002307F4FE93070600A306F4FE46
:10341000930707002306F4FE8347D4FE6382070464
:103420000347E4FE93072000631CF7020347F4FE02
:103430009307D0056306F7020347F4FE93072006BF
:103440006300F7028347E4FE9397270013F7F70F13
:103450008347C4FEB307F70093F7F70F6F00C0026E
:103460008347D4FE639807000347C4FE93072000F8
:10347000631AF7008347E4FE9387170093F7F70F6B
:103480006F0080008347E4FE138507000324C10119
:103490001301010267800000130101FD2326810250
:1034A0001304010393070500938605001307060024
:1034B000A30FF4FC93870600230FF4FC9307070087
:1034C000A30EF4FC8347E4FD639807000347D4FD93
:1034D00093072000631AF70093071000A307F4FE78
:1034E0008347F4FE6F00C000A30704FE8347F4FE89
:1034F000138507000324C102130101036780000044
:10350000130101FD23261102232481021304010368
:103510009307050013870600A30FF4FC93870500AB
:10352000230FF4FC93070600A30EF4FC9307070097
:10353000230EF4FC13053000EFF09FD28346C4FD48
:103540000346D4FD0347E4FD8347F4FD93050700DC
:1035500013850700EFF05FE993070500A307F4FE6A
:103560008346C4FD0347D4FD8347E4FD138606006C
:103570009305070013850700EFF01FF2930705007E
:103580002307F4FE0347E4FE8347F4FE9305070098
:1035900013850700EF0080038347F4FE13850700BF
:1035A000EFF09FDA9307050013850700EFF09FD235
:1035B00013051000EFF0DFCA130000008320C102E2
:1035C000032481021301010367800000130101FE3F
:1035D000232E8100130401029307050013870500C1
:1035E000A307F4FE930707002307F4FEB707086854
:1035F00093870701371700011307078023A0E7000F
:103600000347F4FE93076000631CF70CB7071161D2
:10361000938707041307100023A0E700B707116181
:1036200093870701370714001307870023A0E700DB
:10363000B7071161938787013707FD0013077701EB
:1036400023A0E700B70711619387C7013717000070
:103650001307071323A0E700B70711619387070239
:10366000370702001307071923A0E700B707116106
:10367000938747023707CF081307970123A0E70076
:10368000B70711619387870237E719071307D769CF
:1036900023A0E700B70711619387C702370703012B
:1036A0001307874023A0E700B7071161938707033B
:1036B000374711071307471123A0E700B707116128
:1036C00093878703370718001307470123A0E700F4
:1036D000B70711619387070423A007006F00500507
:1036E0000347F4FE930750006312F70E0347E4FE0E
:1036F00093071000631CF70CB70711619387070449
:103700001307100023A0E700B70711619387070193
:10371000370714001307870023A0E700B7071161DC
:10372000938787013707FA001307970123A0E70063
:10373000B70711619387C70137170000130707FA0E
:1037400023A0E700B707116193870702370702003C
:103750001307071923A0E700B707116193874702F2
:103760003707CF081307970123A0E700B7071161B8
:103770009387870237E7CA071307E76923A0E700A3
:10378000B70711619387C702370700011307874006
:1037900023A0E700B70711619387070337271107B5
:1037A000130757B823A0E700B70711619387870372
:1037B000370718001307470123A0E700B707116177
:1037C0009387070423A007006F0080760347F4FE69
:1037D00093075000631CF70CB70711619387070428
:1037E0001307100023A0E700B707116193870701B3
:1037F000370714001307870023A0E700B7071161FC
:1038000093878701370704011307D70023A0E70038
:10381000B70711619387C70137270000130707F423
:1038200023A0E700B707116193870702370702005B
:103830001307071923A0E700B70711619387470211
:103840003707CF081307970123A0E700B7071161D7
:103850009387870237E763071307B76923A0E70059
:10386000B70711619387C702370701011307874024
:1038700023A0E700B70711619387070337C7110734
:10388000130767DC23A0E700B7071161938787035D
:10389000370718001307470123A0E700B707116196
:1038A0009387070423A007006F0080680347F4FE96
:1038B000930740006310F70E8347E4FE639C070CF8
:1038C000B7071161938707041307100023A0E700CF
:1038D000B707116193870701370728001307F7001F
:1038E00023A0E700B707116193878701370700011D
:1038F0001307870123A0E700B70711619387C7016A
:10390000371700001307B70A23A0E700B7071161B4
:1039100093870702370702001307071923A0E70060
:10392000B7071161938747023707AD09130797015E
:1039300023A0E700B70711619387870237E7AB073A
:103940001307076923A0E700B70711619387C70230
:10395000370701011307974023A0E700B70711615C
:1039600093870703379712071307376723A0E700EA
:10397000B70711619387870337071800130787027A
:1039800023A0E700B70711619387070423A007006E
:103990006F00005A0347F4FE93072000630EF70000
:1039A0000347F4FE930730006310F70E0347E4FE6D
:1039B00093071000631AF70CB70711619387070488
:1039C0001307100023A0E700B707116193870701D1
:1039D000370728001307F70023A0E700B707116196
:1039E000938787013707F8001307D70523A0E7005F
:1039F000B70711619387C7011307007D23A0E70074
:103A0000B707116193870702370704001307E72EF2
:103A100023A0E700B7071161938747023707B4096E
:103A20001307970123A0E700B70711619387870267
:103A300037E7A7071307076923A0E700B707116156
:103A40009387C702370701011307974023A0E700B8
:103A5000B707116193870703376712071307776961
:103A600023A0E700B7071161938787033707180082
:103A70001307870223A0E700B707116193870704A4
:103A800023A007006F00C04A0347F4FE93073000ED
:103A9000631CF70CB7071161938707041307100025
:103AA00023A0E700B70711619387070137072800B4
:103AB0001307F70023A0E700B70711619387870179
:103AC000370700011307070323A0E700B7071161B9
:103AD0009387C701371700001307578523A0E70016
:103AE000B707116193870702370702001307071909
:103AF00023A0E700B7071161938747023707AD0995
:103B00001307970123A0E700B70711619387870286
:103B100037E7AB071307076923A0E700B707116171
:103B20009387C702370701011307974023A0E700D7
:103B3000B707116193870703379712071307376792
:103B400023A0E700B70711619387870337071800A1
:103B50001307870223A0E700B707116193870704C3
:103B600023A007006F00C03C0347F4FE9307A000AA
:103B70006314F70EB707116193870704130710004A
:103B800023A0E700B70711619387070137071E00DD
:103B90001307C70023A0E700B707116193878701C8
:103BA0003707FA001307470623A0E700B70711619C
:103BB0009387C7011307007D23A0E700B7071161B2
:103BC00093870702370704001307073223A0E70093
:103BD000B70711619387470237079B0913079701BE
:103BE00023A0E700B70711619387870237E797079C
:103BF0001307B76323A0E700B70711619387C702D4
:103C0000370701011307A74023A0E700B707116199
:103C100093870703371711071307171023A0E7002F
:103C2000B707116193878703370718001307E70168
:103C300023A0E700B70711619387070423A00700BB
:103C4000B70708689387070137170001130707C0F4
:103C500023A0E7006F00C02D0347F4FE9307200167
:103C60006316F70EB7071161938707041307100057
:103C700023A0E700B70711619387070137071E00EC
:103C80001307C70023A0E700B707116193878701D7
:103C90003707FA001307970123A0E700B707116160
:103CA0009387C70137170000130707FA23A0E7001F
:103CB000B707116193870702370702001307071937
:103CC00023A0E700B70711619387470237079B09D5
:103CD0001307970123A0E700B707116193878702B5
:103CE00037E797071307B76323A0E700B70711610A
:103CF0009387C702370701011307A74023A0E700F6
:103D0000B7071161938707033717110713071710B8
:103D100023A0E700B70711619387870337071800CF
:103D20001307E70123A0E700B70711619387070492
:103D300023A00700B707086893870701371700011A
:103D4000130707C023A0E7006F00801E0347F4FE9F
:103D5000930790006314F70EB70711619387070468
:103D60001307100023A0E700B7071161938707012D
:103D7000370719001307A70023A0E700B707116151
:103D8000938787013707FA001307470623A0E70048
:103D9000B70711619387C7011307007D23A0E700D0
:103DA000B70711619387070237070400130707322B
:103DB00023A0E700B70711619387470237078209FD
:103DC0001307970123A0E700B707116193878702C4
:103DD00037E7FD071307576C23A0E700B70711610A
:103DE0009387C702370700011307874023A0E70026
:103DF000B70711619387070337171107130737C9EF
:103E000023A0E700B70711619387870337071800DE
:103E10001307970123A0E700B707116193870704F1
:103E200023A00700B7070868938707013717000129
:103E3000130707A023A0E7006F00800F0347F4FEDD
:103E4000930710016316F70EB707116193870704F4
:103E50001307100023A0E700B7071161938707013C
:103E6000370719001307A70023A0E700B707116160
:103E7000938787013707FA001307970123A0E7000C
:103E8000B70711619387C70137170000130707FAB7
:103E900023A0E700B70711619387070237070200E5
:103EA0001307071923A0E700B7071161938747029B
:103EB000370782091307970123A0E700B7071161AD
:103EC0009387870237E7FD071307576C23A0E700A6
:103ED000B70711619387C7023707000113078740AF
:103EE00023A0E700B707116193870703371711076E
:103EF000130737C923A0E700B7071161938787032A
:103F0000370718001307970123A0E700B7071161CF
:103F10009387070423A00700B70708689387070162
:103F200037170001130707A023A0E7006F00400028
:103F3000130000000324C101130101026780000087
:103F4000130101FD2326810213040103232EA4FC87
:103F5000232CB4FC832784FD23A00700832784FD42
:103F600003A707008327C4FD83C7070093F7370023
:103F70003367F700832784FD23A0E700832784FDB0
:103F800003A707008327C4FD83C717009397470043
:103F900093F707033367F700832784FD23A0E70027
:103FA000232604FE6F00C0050327C4FD8327C4FE3B
:103FB00093972700B307F70083D7270013860700DE
:103FC0000327C4FD8327C4FE93972700B307F70098
:103FD00083D74700139707018327C4FE93871700F1
:103FE00093972700832684FDB387F6003367E600A6
:103FF00023A0E7008327C4FE938717002326F4FE3F
:104000000327C4FE93072000E3D0E7FA8327C4FD0B
:1040100083D7E700938607008327C4FD83D7070172
:1040200013970701832784FD9387070133E7E60091
:1040300023A0E7008327C4FD83D7270193860700C9
:104040008327C4FD83D7470113970701832784FD86
:104050009387470133E7E60023A0E7008327C4FDE9
:1040600083D76701938607008327C4FD83D7870121
:1040700013970701832784FD9387870133E7E600C1
:1040800023A0E700130000000324C1021301010371
:1040900067800000130101FD232611022324810201
:1040A00013040103232EA4FCB707007193870703B1
:1040B0002326F4FE232404FE6F00C003832784FE1E
:1040C000939727000327C4FDB307F70083A70700D2
:1040D000938507000325C4FEEF30002A8327C4FE22
:1040E000938747002326F4FE832784FE93871700D7
:1040F0002324F4FE032784FE93076000E3D0E7FC4B
:10410000130000008320C102032481021301010374
:1041100067800000130101FD2326810213040103BF
:10412000232EA4FC232604FE6F0000038327C4FE75
:10413000939727000327C4FDB307F70083A7070061
:1041400063860700930710006F0000028327C4FEF8
:10415000938717002326F4FE0327C4FE930760000D
:10416000E3D6E7FC93070000138507000324C10290
:104170001301010367800000130101FE232E1100CB
:10418000232C8100232A9100130401022326A4FE7C
:10419000B707007413850702EF30801B1307050073
:1041A0008327C4FE23A0E7008327C4FE938447002F
:1041B000B707007413854702EF3080199307050095
:1041C00023A0F4008327C4FE93848700B7070074FC
:1041D00013858702EF30C0179307050023A0F40072
:1041E0008327C4FE9384C700B70700741385C702F2
:1041F000EF3000169307050023A0F4008327C4FEC8
:1042000093840701B707007413850703EF30401448
:104210009307050023A0F4008327C4FE938447017D
:10422000B707007413854703EF308012930705002A
:1042300023A0F4008327C4FE93848701B70700748A
:1042400013858703EF30C0109307050023A0F40007
:10425000130000008320C101032481018324410154
:104260001301010267800000130101FE232E81006B
:104270001304010293070500A307F4FE8347F4FE2D
:10428000938707F813077000636CF70413972700F0
:10429000976700009387875DB307F70003A70700C0
:1042A000976700009387875CB307F7006780070074
:1042B000930700006F000003930700006F00800267
:1042C000930700006F000002930700006F00800159
:1042D000930700006F000001930700006F0080004B
:1042E0008347F4FE138507000324C1011301010273
:1042F00067800000130101FC232E1102232C810290
:1043000013040104930705009386050013070600B4
:10431000A307F4FC938706002307F4FC9307070028
:10432000A306F4FC232A04FC232C04FC232E04FC07
:10433000232004FE232204FE232404FE232604FE5D
:10434000930744FD13850700EFF01FE39387018D6A
:104350000347F4FCA380E7008347E4FC13850700D0
:10436000EFF09FF093070500138707009387018DF7
:104370002386E7009387018D0347D4FCA387E700DA
:10438000930744FD13850700EFF0DFD8930705007E
:10439000638807029387018D13073000A382E7002B
:1043A0009387018D130710002384E7009387018D05
:1043B00013076000A384E700EF00101A6F000002EB
:1043C0009387018DA38207009387018DA384070043
:1043D0009387018D23840700EF00C0029385818EAF
:1043E0001385018DEF0000431385818EEF00007966
:1043F000130000008320C10303248103130101047F
:1044000067800000130101FB23261104232481048B
:1044100013040105232A04FC232C04FC232E04FC92
:10442000232004FE232204FE232404FE232604FE6C
:10443000232C04FA232E04FA232004FC232204FC58
:10444000232404FC232604FC231804FC130744FD46
:10445000930784FB9305070013850700EFF05FAE19
:10446000930744FD13850700EFF0DFC2130000003F
:104470008320C10403248104130101056780000027
:10448000130101FE232E8100130401022326A4FE42
:104490002324B4FE832784FE23800700832784FE21
:1044A0009387170023800700832784FE93872700C4
:1044B00023800700832784FE83C7070013978701A3
:1044C000135787418327C4FE83C70700939787014B
:1044D00093D7874193F717009397870193D7874125
:1044E000B367F7009397870193D7874113F7F70FC7
:1044F000832784FE2380E700832784FE83C7070089
:1045000013978701135787418327C4FE83C717007A
:10451000939747009397870193D7874193F70701B4
:104520009397870193D78741B367F70093978701E4
:1045300093D7874113F7F70F832784FE2380E70083
:10454000832784FE9387170083C70700139787018B
:10455000135787418327C4FE83C72700939787019A
:1045600093D7874193F7F7009397870193D78741B4
:10457000B367F7001397870113578741832784FE9A
:10458000938717001377F70F2380E700832784FEB4
:104590009387170083C70700139787011357874135
:1045A0008327C4FE83C737009397470093978701FB
:1045B00093D78741B367F700139787011357874154
:1045C000832784FE938717001377F70F2380E70074
:1045D000832784FE9387270083C7070013978701EB
:1045E000135787418327C4FE83C7470093978701EA
:1045F00093D7874193F717009397870193D7874104
:10460000B367F7001397870113578741832784FE09
:10461000938727001377F70F2380E700130000002C
:104620000324C1011301010267800000130101FD91
:10463000232611022324810213040103232EA4FC48
:10464000232604FE8327C4FD83C7070013870700C2
:104650008327C4FEB3E7E7002326F4FE8327C4FDC7
:104660009387170083C70700939787000327C4FE2B
:10467000B367F7002326F4FE8327C4FD9387270042
:1046800083C70700939707010327C4FEB367F700AA
:104690002326F4FE8325C4FEB70700711385C701E6
:1046A000EF20904D130000008320C10203248102FB
:1046B0001301010367800000130101FD232611028D
:1046C00023248102130401039307050013870600C6
:1046D000A30FF4FC93870500230FF4FC9307060057
:1046E000A30EF4FC93070700230EF4FC231604FE2C
:1046F000230704FE232204FE230404FE230204FEF7
:10470000A30204FE230304FEA30304FE0347E4FD07
:1047100093071000630EF7020347D4FD93072000B0
:104720006318F7020347C4FD930720006312F702E2
:104730000347F4FD9307D005630CF7000347F4FD2E
:10474000930720066306F70093072000A303F4FEF7
:10475000230404FE0347C4FD930720006310F704FD
:104760000347D4FD93072000631AF7020347E4FDD3
:10477000930710006304F7020347F4FD9307D00585
:10478000630EF7000347F4FD930720066308F70064
:10479000930760002303F4FE6F0080040347C4FD09
:1047A00093072000631EF7020347D4FD9307100010
:1047B0006318F7020347E4FD930710006302F70252
:1047C0000347F4FD9307D005630CF7000347F4FD9E
:1047D000930720066306F700930750002303F4FEB7
:1047E0001307C4FE930744FE9305070013850700D3
:1047F000EFF01FC99307C4FE13850700EFF01FE316
:10480000130000008320C10203248102130101036D
:1048100067800000130101FE232E810013040102B2
:104820002326A4FE2324B4FE8327C4FE83C71700D7
:10483000939757009397870193D7874193F707067C
:1048400013978701135787418327C4FE83C7270027
:10485000939747009397870193D7874193F7070171
:104860009397870193D78741B367F7001397870121
:10487000135787418327C4FE83C7370093972700C8
:104880009397870193D7874193F7C7009397870141
:1048900093D78741B367F700139787011357874171
:1048A0008327C4FE83C747009397870193D7874127
:1048B00093F737009397870193D78741B367F70042
:1048C0009397870193D7874113F7F70F832784FEC8
:1048D0002380E7008327C4FE83C7570093976700B0
:1048E00013978701135787418327C4FE83C7670047
:1048F000939747009397870193D7874193F70703CF
:104900009397870193D78741B367F7001397870180
:10491000135787418327C4FE83C777009397870186
:1049200093D7874193F7F7009397870193D78741F0
:10493000B367F7001397870113578741832784FED6
:10494000938717001377F70F2380E7008327C4FEB0
:1049500083C7870093977700139787011357874181
:104960008327C4FE83C797009397470093978701D7
:1049700093D7874193F707079397870193D7874189
:10498000B367F70013978701135787418327C4FE46
:1049900083C7A700939727009397870193D78741F1
:1049A00093F7C7009397870193D78741B367F700C1
:1049B00013978701135787418327C4FE83C7B70026
:1049C0009397870193D7874193F737009397870190
:1049D00093D78741B367F700139787011357874130
:1049E000832784FE938727001377F70F2380E70040
:1049F000832784FE938737000327C4FE0347C7003D
:104A00002380E7008327C4FE83C7D70093976700FE
:104A100013978701135787418327C4FE83C7E70095
:104A2000939747009397870193D7874193F707039D
:104A30009397870193D78741B367F700139787014F
:104A4000135787418327C4FE83C7F70093978701D5
:104A500093D7874193F7F7009397870193D78741BF
:104A6000B367F7001397870113578741832784FEA5
:104A7000938747001377F70F2380E7008327C4FE4F
:104A800083D7070193D787001397070113570701AF
:104A9000832784FE938757001377F70F2380E7005F
:104AA0008327C4FE03D70701832784FE938767000B
:104AB0001377F70F2380E7008327C4FE83D72701EE
:104AC00093D787001397070113570701832784FEA5
:104AD000938777001377F70F2380E7008327C4FEBF
:104AE00003D72701832784FE938787001377F70F67
:104AF0002380E7008327C4FE83D7470193D787002D
:104B00001397070113570701832784FE93879700A4
:104B10001377F70F2380E7008327C4FE03D74701ED
:104B2000832784FE9387A7001377F70F2380E7007E
:104B30008327C4FE83D7670193D7870013970701A4
:104B400013570701832784FE9387B7001377F70F66
:104B50002380E7008327C4FE03D76701832784FEF1
:104B60009387C7001377F70F2380E7001300000037
:104B70000324C1011301010267800000130101FE3B
:104B8000232E1100232C8100130401022326A4FEEE
:104B90008327C4FE83C70700138707008327C4FE4B
:104BA0009387170083C70700939787003367F70041
:104BB0008327C4FE9387270083C7070093970701C5
:104BC0003367F7008327C4FE9387370083C7070046
:104BD00093978701B367F70093850700B7070071C4
:104BE00013850702EF2040798327C4FE938747008F
:104BF00083C70700138707008327C4FE93875700E6
:104C000083C70700939787003367F7008327C4FEA5
:104C10009387670083C70700939707013367F700FF
:104C20008327C4FE9387770083C707009397870184
:104C3000B367F70093850700B70700711385470234
:104C4000EF2080738327C4FE9387870083C7070004
:104C5000138707008327C4FE9387970083C7070045
:104C6000939787003367F7008327C4FE9387A700D5
:104C700083C70700939707013367F7008327C4FEB4
:104C80009387B70083C7070093978701B367F7003F
:104C900093850700B707007113858702EF20C06D69
:104CA0008327C4FE9387C70083C707009385070047
:104CB000B70700711385C702EF20006C13000000D6
:104CC0008320C101032481011301010267800000D8
:104CD000130101FD232611022324810223229102C4
:104CE00013040103232EA4FCB70700749387070263
:104CF0002326F4FE232404FE6F00C003832784FED2
:104D0000939727000327C4FDB304F7000325C4FECF
:104D1000EF2000649307050023A0F4008327C4FE5E
:104D2000938747002326F4FE832784FE938717008A
:104D30002324F4FE032784FE93076000E3D0E7FCFE
:104D4000130000008320C102032481028324410256
:104D50001301010367800000130101F8232E1106DF
:104D6000232C810613040108232A04FC232C04FCB1
:104D7000232E04FC232004FE232204FE232404FE0D
:104D8000232604FE232C04FA232E04FA232004FCF9
:104D9000232204FC232404FC232604FC231804FC03
:104DA000232E04F8232004FA232204FA232404FAED
:104DB000232604FA232804FA231A04FA930744FD4D
:104DC00013850700EFF0DFF0130784FB930744FD22
:104DD0009305070013850700EF00800E034784FB4F
:104DE000930710006318F70093073000230EF4F8C0
:104DF0006F008001034784FB930720006316F700D0
:104E000093072000230EF4F893072000230EF4F8F4
:104E10008357A4FB231FF4F88357C4FB2310F4FA31
:104E20008357E4FB2311F4FA835704FC2312F4FAAA
:104E3000835724FC2313F4FA835784FC2316F4FAD3
:104E4000835764FC2315F4FA835784FC2316F4FA81
:104E50008357A4FC2317F4FA8357C4FC2318F4FAED
:104E60008357E4FC2319F4FA835704FD231AF4FA58
:104E7000232004F8232204F8232404F8232604F82A
:104E8000232804F8232A04F8232C04F8130704F831
:104E90009307C4F99305070013850700EFF04F8AC5
:104EA000930704F813850700EFF0CF9E130000006E
:104EB0008320C107032481071301010867800000D4
:104EC000130101FD2326810213040103232EA4FCF8
:104ED000232CB4FC8327C4FD83A7070093F7F70FA7
:104EE00093F7370013F7F70F832784FD2380E7003C
:104EF000232604FE6F00C0078327C4FE9387170094
:104F0000939727000327C4FDB307F70083A7070083
:104F10001397070113570701832684FD8327C4FED7
:104F200093972700B387F6002391E7008327C4FEF9
:104F300093871700939727000327C4FDB307F70053
:104F400083A7070093D7070113970701135707019A
:104F5000832684FD8327C4FE93972700B387F6003A
:104F60002392E7008327C4FE938717002326F4FECD
:104F70000327C4FE93072000E3D0E7F88327C4FD8E
:104F80009387070183A707001397070113570701AA
:104F9000832784FD2397E7008327C4FD93870701B8
:104FA00083A7070093D7070113970701135707013A
:104FB000832784FD2398E7008327C4FD9387470157
:104FC00083A707001397070113570701832784FD61
:104FD0002399E7008327C4FD9387470183A7070030
:104FE00093D707011397070113570701832784FD00
:104FF000239AE7008327C4FD9387870183A70700CF
:105000001397070113570701832784FD239BE700AC
:105010008327C4FD9387870183A7070093D70701E0
:105020001397070113570701832784FD239CE7008B
:10503000130000000324C102130101036780000074
:10504000130101FF23261100232481001304010111
:10505000977700009387870183A7070093060000D6
:1050600013060007B715007013850700EF001076D0
:10507000130000008320C1000324810013010101FB
:1050800067800000130101FE232E1100232C8100F4
:1050900013040102930705002324D4FE2322E4FE17
:1050A000A307F4FE938705002307F4FE9307060089
:1050B000A306F4FE97770000938747FB03A507003C
:1050C0008347E4FE9396070193D606018347D4FEF7
:1050D0009397070193D707018345F4FE1308000057
:1050E000032744FE032684FEEF10C00497770000D8
:1050F0009387C7F783A70700930500001385070070
:10510000EF108021130705009387C18923A0E700D2
:105110009387C18983A70700138507008320C101F6
:10512000032481011301010267800000130101FDC6
:10513000232611022324810213040103930705008F
:1051400013870500A30FF4FC93070700230FF4FC5B
:105150008347F4FD2306F4FE8347E4FDA306F4FE33
:10516000130784FE9307C4FE9386070013061000FE
:105170009305200013054005EFF0DFF01300000059
:105180008320C10203248102130101036780000010
:10519000130101FE232E1100232C810013040102B0
:1051A0009307050013870500A307F4FE9307070084
:1051B0002307F4FE9305300013050002EFF01FF7FC
:1051C000130000008320C1010324810113010102A7
:1051D00067800000130101FE232E1100232C8100A3
:1051E000130401029307050013870500A307F4FECB
:1051F000930707002307F4FE930500001305000240
:10520000EFF0DFF2130000008320C10103248101CD
:105210001301010267800000130101FF2326110022
:105220002324810013040101930510003705007148
:10523000EF20801493052000B70700711385470005
:10524000EF2080139305100013052000EFF05FF4AA
:10525000130000008320C100032481001301010119
:1052600067800000130101FF232611002324810021
:10527000130401019305000037050071EF20C00FF2
:1052800093051000B707007113854700EF20C00E8B
:105290009305100013052000EFF0DFF3130000006A
:1052A0008320C100032481001301010167800000F5
:1052B000130101FD2326110223248102130401039B
:1052C000232EA4FC232CB4FC9307060013870600AE
:1052D000231BF4FC93070700A30AF4FC8327C4FDF7
:1052E0006394070073001000034754FD9307700098
:1052F00063F4E70073001000035764FDB727000054
:105300006364F700730010008327C4FD63840716ED
:10531000034754FD9307700063EEE714035764FDE1
:10532000B72700006378F714832784FD138787006D
:10533000835764FD93F7F70F938507001305070064
:10534000EFB05FEE832784FD9386C700034754FDCB
:10535000835764FD93D7574093F7877FB367F70070
:105360009385070013850600EFB0DFEB8327C4FDAC
:10537000032784FD23A0E7008327C4FD83A707003C
:105380009387870013850700EFB05FEA9307050056
:105390002316F4FE8327C4FD83A707009387C70065
:1053A00013850700EFB09FE893070500A305F4FEFF
:1053B0008347B4FE93F787FF2305F4FE8347A4FEDB
:1053C0009397070193D70701939757001397070106
:1053D000135707018357C4FEB367F7002316F4FE83
:1053E0008347B4FE93F77700A305F4FE0357C4FE8A
:1053F000835764FD6304F700730010000347B4FE95
:10540000834754FD6304F700730010008327C4FD35
:1054100083A707009387070113850700EFB01FE1FB
:105420009307050093F72700A307F4FE6F0080039E
:105430008327C4FD83A707009387470013850700D0
:10544000EFB0DFDE8327C4FD83A707009387070142
:1054500013850700EFB09FDD9307050093F7270042
:10546000A307F4FE8347F4FEE39407FC8327C4FDFF
:1054700023820700130000008320C102032481025D
:105480001301010367800000130101FD23261102AF
:105490002324810213040103232EA4FC232CB4FC37
:1054A0008327C4FD6394070073001000832784FDE5
:1054B00063940700730010008327C4FD638007080E
:1054C000832784FD638C0706232604FE6F00C00536
:1054D0008327C4FD83A7070093870701138507006F
:1054E000EFB0DFD49307050093F71700A305F4FE90
:1054F0008347B4FEE38E07FC8327C4FD83A6070021
:10550000032784FD8327C4FEB307F70083C7070082
:105510009385070013850600EFB0DFD08327C4FE14
:10552000938717002326F4FE032784FD8327C4FEF8
:10553000B307F70083C70700E39C07F813000000D8
:105540008320C1020324810213010103678000004C
:10555000130101FE232E1100232C810013040102EC
:105560002326A4FE2324B4FE930706002313F4FE8F
:105570008327C4FE6394070073001000832784FE12
:105580006394070073001000035764FE9307000242
:1055900063F4E70073001000835764FE6394070010
:1055A000730010008327C4FE6384070E832784FEE4
:1055B0006380070E1306C004930500000325C4FE94
:1055C000EF40000B8327C4FE032784FE23A0E700DF
:1055D000035764FE9307000263EEE700835764FEFF
:1055E000638A07008327C4FE035764FE2392E704FF
:1055F0006F0000018327C4FE130710002392E70405
:105600008327C4FE83A7070093060000130610003B
:105610009305000013850700EFB0DFC18327C4FEA8
:1056200083A70700938747029305000013850700AF
:10563000EFB05FBF8327C4FE83A707009387C7012E
:105640009305300013850700EFB0DFBD8327C4FE4C
:1056500083A70700938747009305F00F1385070082
:10566000EFB05FBC8327C4FE83A707009387870141
:105670009305000013850700EFB0DFBA8327C4FE4F
:1056800083A707009305300013850700EFB09FB98B
:10569000130000008320C1010324810113010102D2
:1056A00067800000130101FE232E1100232C8100CE
:1056B000130401022326A4FE8327C4FE639407007B
:1056C000730010008327C4FE638207088327C4FE8B
:1056D00083A707009306000013061000930500003F
:1056E00013850700EFB01FB58327C4FE23A407046A
:1056F0008327C4FE83A707009387C7019305300063
:1057000013850700EFB01FB28327C4FE83A70700ED
:10571000938747009305F00F13850700EFB09FB004
:105720008327C4FE83A707009387870193050000A2
:1057300013850700EFB01FAF8327C4FE83A70700C0
:105740009305300013850700EFB0DFAD13000000B4
:105750008320C1010324810113010102678000003D
:10576000130101FD232611022324810213040103E6
:10577000232EA4FC232CB4FC232604FE8327C4FD83
:105780006394070073001000032784FD93077000E3
:1057900063F4E700730010008327C4FD6386070AE3
:1057A000032784FD9307700063E0E70A8327C4FDA5
:1057B00083A7070013062000930510001385070038
:1057C000EFB0DFA993070500638007088327C4FDB6
:1057D00083A7070093870702130600019305400083
:1057E00013850700EFB09FA79307050013870700F5
:1057F000930710006316F7000325C4FDEF00007443
:105800008327C4FD83A707009387470213850700FA
:10581000EFB0DFA19307050093860700832784FD7F
:1058200013071000B317F700B3E7F6002326F4FEC2
:105830008327C4FD83A70700938747028325C4FEFF
:1058400013850700EFB01F9E130000008320C102E4
:10585000032481021301010367800000130101FD8D
:10586000232611022324810213040103232EA4FC06
:10587000232CB4FC232604FE8327C4FD6394070075
:1058800073001000032784FD9307700063F4E700A2
:10589000730010008327C4FD6388070A032784FD73
:1058A0009307700063E2E70A8327C4FD83A707001C
:1058B000130620009305100013850700EFB01F9A10
:1058C00093070500638207088327C4FD83A70700A9
:1058D0009387070213060001930540001385070014
:1058E000EFB0DF97930705001387070093071000B9
:1058F0006316F7000325C4FDEF0040648327C4FD51
:1059000083A707009387470213850700EFB01F9214
:105910009307050093860700832784FD1307100073
:10592000B317F70093C7F7FFB3F7F6002326F4FE8B
:105930008327C4FD83A70700938747028325C4FEFE
:1059400013850700EFB01F8E130000008320C102F3
:10595000032481021301010367800000130101FD8C
:10596000232611022324810213040103232EA4FC05
:10597000232CB4FC930706002328D4FC231BF4FC3F
:1059800093070700231AF4FC232204FE231704FEC6
:10599000231604FE231504FE231404FE8327C4FDEE
:1059A00063940700730010008327C4FD638E0756BD
:1059B0008327C4FD83A7070013062000930510006A
:1059C00013850700EFB09F8993070500638E075486
:1059D000035764FD835744FDB307F70063860754FC
:1059E000035764FD835744FDB307F7009387F7FF20
:1059F0002322F4FE8327C4FD83A707009387C701F2
:105A00009305300013850700EFB0DF818327C4FDC5
:105A100083A7070093870702130600019305400040
:105A200013850700EFB09F839307050013870700D6
:105A3000930710006316F7000325C4FDEF00005024
:105A40008327C4FD83A707009306000013061000F8
:105A50009305000013850700EFB0CFFD6F0000072E
:105A60000357C4FE835764FD637AF7028327C4FD9E
:105A700083A707009386C7008357C4FE9397270028
:105A8000032784FDB307F70083A70700938507006A
:105A900013850600EFB00FF06F00C0018327C4FD2F
:105AA00083A707009387C7009305000013850700AD
:105AB000EFB04FEE835784FE938717002314F4FE54
:105AC0008357C4FE938717002316F4FE8357C4FE42
:105AD000032744FE63FAE7008327C4FD83D7470406
